:100000000C9434000C943E000C943E000C943E0082
:100010000C943E000C943E000C943E000C943E0068
:100020000C943E000C943E000C943E000C943E0058
:100030000C943E000C943E000C943E000C943E0048
:100040000C943E000C943E000C943E000C943E0038
:100050000C943E000C943E000C943E000C943E0028
:100060000C943E000C943E0011241FBECFEFD8E04C
:10007000DEBFCDBF0E9440000C947F000C940000B6
:10008000229A219A2098299A22D0299809D002D020
:100090002CD0F9CFC43112F02A9808952A9A0895E5
:1000A00040E04093800045EC4093810056B355FFFB
:1000B000FDCF0091860056BB45E84093810056B3C2
:1000C00055FFFDCFC0918600C01B56BB0895442745
:1000D00046BD44E147BD4AE045BD45B341FFFDCFC4
:1000E000442745BD42E045BB08955FEF6FEF72E3E3
:1000F0007A95F1F76A95D9F75A95C1F70895F8946A
:02010000FFCF2F
:00000001FF
